{
  "contractName": "LandRegistry",
  "abi": [
    {
      "anonymous": false,
      "inputs": [
        {
          "indexed": false,
          "internalType": "uint256",
          "name": "id",
          "type": "uint256"
        },
        {
          "indexed": true,
          "internalType": "address",
          "name": "owner",
          "type": "address"
        }
      ],
      "name": "LandRegistered",
      "type": "event"
    },
    {
      "inputs": [],
      "name": "landCount",
      "outputs": [
        {
          "internalType": "uint256",
          "name": "",
          "type": "uint256"
        }
      ],
      "stateMutability": "view",
      "type": "function",
      "constant": true
    },
    {
      "inputs": [
        {
          "internalType": "uint256",
          "name": "",
          "type": "uint256"
        }
      ],
      "name": "lands",
      "outputs": [
        {
          "internalType": "string",
          "name": "ownerName",
          "type": "string"
        },
        {
          "internalType": "string",
          "name": "location",
          "type": "string"
        },
        {
          "internalType": "uint256",
          "name": "area",
          "type": "uint256"
        },
        {
          "internalType": "address",
          "name": "ownerAddress",
          "type": "address"
        }
      ],
      "stateMutability": "view",
      "type": "function",
      "constant": true
    },
    {
      "inputs": [
        {
          "internalType": "string",
          "name": "_ownerName",
          "type": "string"
        },
        {
          "internalType": "string",
          "name": "_location",
          "type": "string"
        },
        {
          "internalType": "uint256",
          "name": "_area",
          "type": "uint256"
        }
      ],
      "name": "registerLand",
      "outputs": [],
      "stateMutability": "nonpayable",
      "type": "function"
    },
    {
      "inputs": [
        {
          "internalType": "uint256",
          "name": "_id",
          "type": "uint256"
        }
      ],
      "name": "getLand",
      "outputs": [
        {
          "internalType": "string",
          "name": "",
          "type": "string"
        },
        {
          "internalType": "string",
          "name": "",
          "type": "string"
        },
        {
          "internalType": "uint256",
          "name": "",
          "type": "uint256"
        },
        {
          "internalType": "address",
          "name": "",
          "type": "address"
        }
      ],
      "stateMutability": "view",
      "type": "function",
      "constant": true
    },
    {
      "inputs": [
        {
          "internalType": "uint256",
          "name": "_id",
          "type": "uint256"
        }
      ],
      "name": "isOwner",
      "outputs": [
        {
          "internalType": "bool",
          "name": "",
          "type": "bool"
        }
      ],
      "stateMutability": "view",
      "type": "function",
      "constant": true
    }
  ],
  "bytecode": "0x60806040525f8055348015610012575f80fd5b50610e5d806100205f395ff3fe608060405234801561000f575f80fd5b5060043610610055575f3560e01c806339c7639c14610059578063cb9bff7014610089578063d7bce658146100a5578063e261f1e5146100c3578063f02dd53f146100f6575b5f80fd5b610073600480360381019061006e91906106c6565b610129565b604051610080919061070b565b60405180910390f35b6100a3600480360381019061009e9190610860565b6101e2565b005b6100ad610312565b6040516100ba91906108f7565b60405180910390f35b6100dd60048036038101906100d891906106c6565b610317565b6040516100ed94939291906109c9565b60405180910390f35b610110600480360381019061010b91906106c6565b61046e565b60405161012094939291906109c9565b60405180910390f35b5f808211801561013a57505f548211155b610179576040517f08c379a000000000000000000000000000000000000000000000000000000000815260040161017090610a64565b60405180910390fd5b3373ffffffffffffffffffffffffffffffffffffffff1660015f8481526020019081526020015f206003015f9054906101000a900473ffffffffffffffffffffffffffffffffffffffff1673ffffffffffffffffffffffffffffffffffffffff16149050919050565b5f808154809291906101f390610aaf565b919050555060405180608001604052808481526020018381526020018281526020013373ffffffffffffffffffffffffffffffffffffffff1681525060015f805481526020019081526020015f205f820151815f0190816102549190610cf0565b50602082015181600101908161026a9190610cf0565b50604082015181600201556060820151816003015f6101000a81548173ffffffffffffffffffffffffffffffffffffffff021916908373ffffffffffffffffffffffffffffffffffffffff1602179055509050503373ffffffffffffffffffffffffffffffffffffffff167fcb4990052f95f6057496d19524f6c3163f50af9f33f2c15b092928e03414323e5f5460405161030591906108f7565b60405180910390a2505050565b5f5481565b6001602052805f5260405f205f91509050805f01805461033690610b23565b80601f016020809104026020016040519081016040528092919081815260200182805461036290610b23565b80156103ad5780601f10610384576101008083540402835291602001916103ad565b820191905f5260205f20905b81548152906001019060200180831161039057829003601f168201915b5050505050908060010180546103c290610b23565b80601f01602080910402602001604051908101604052809291908181526020018280546103ee90610b23565b80156104395780601f1061041057610100808354040283529160200191610439565b820191905f5260205f20905b81548152906001019060200180831161041c57829003601f168201915b505050505090806002015490806003015f9054906101000a900473ffffffffffffffffffffffffffffffffffffffff16905084565b6060805f805f8511801561048357505f548511155b6104c2576040517f08c379a00000000000000000000000000000000000000000000000000000000081526004016104b990610e09565b60405180910390fd5b5f60015f8781526020019081526020015f206040518060800160405290815f820180546104ee90610b23565b80601f016020809104026020016040519081016040528092919081815260200182805461051a90610b23565b80156105655780601f1061053c57610100808354040283529160200191610565565b820191905f5260205f20905b81548152906001019060200180831161054857829003601f168201915b5050505050815260200160018201805461057e90610b23565b80601f01602080910402602001604051908101604052809291908181526020018280546105aa90610b23565b80156105f55780601f106105cc576101008083540402835291602001916105f5565b820191905f5260205f20905b8154815290600101906020018083116105d857829003601f168201915b5050505050815260200160028201548152602001600382015f9054906101000a900473ffffffffffffffffffffffffffffffffffffffff1673ffffffffffffffffffffffffffffffffffffffff1673ffffffffffffffffffffffffffffffffffffffff16815250509050805f01518160200151826040015183606001519450945094509450509193509193565b5f604051905090565b5f80fd5b5f80fd5b5f819050919050565b6106a581610693565b81146106af575f80fd5b50565b5f813590506106c08161069c565b92915050565b5f602082840312156106db576106da61068b565b5b5f6106e8848285016106b2565b91505092915050565b5f8115159050919050565b610705816106f1565b82525050565b5f60208201905061071e5f8301846106fc565b92915050565b5f80fd5b5f80fd5b5f601f19601f8301169050919050565b7f4e487b71000000000000000000000000000000000000000000000000000000005f52604160045260245ffd5b6107728261072c565b810181811067ffffffffffffffff821117156107915761079061073c565b5b80604052505050565b5f6107a3610682565b90506107af8282610769565b919050565b5f67ffffffffffffffff8211156107ce576107cd61073c565b5b6107d78261072c565b9050602081019050919050565b828183375f83830152505050565b5f6108046107ff846107b4565b61079a565b9050828152602081018484840111156108205761081f610728565b5b61082b8482856107e4565b509392505050565b5f82601f83011261084757610846610724565b5b81356108578482602086016107f2565b91505092915050565b5f805f606084860312156108775761087661068b565b5b5f84013567ffffffffffffffff8111156108945761089361068f565b5b6108a086828701610833565b935050602084013567ffffffffffffffff8111156108c1576108c061068f565b5b6108cd86828701610833565b92505060406108de868287016106b2565b9150509250925092565b6108f181610693565b82525050565b5f60208201905061090a5f8301846108e8565b92915050565b5f81519050919050565b5f82825260208201905092915050565b5f5b8381101561094757808201518184015260208101905061092c565b5f8484015250505050565b5f61095c82610910565b610966818561091a565b935061097681856020860161092a565b61097f8161072c565b840191505092915050565b5f73ffffffffffffffffffffffffffffffffffffffff82169050919050565b5f6109b38261098a565b9050919050565b6109c3816109a9565b82525050565b5f6080820190508181035f8301526109e18187610952565b905081810360208301526109f58186610952565b9050610a0460408301856108e8565b610a1160608301846109ba565b95945050505050565b7f496e76616c6964206c616e6420494400000000000000000000000000000000005f82015250565b5f610a4e600f8361091a565b9150610a5982610a1a565b602082019050919050565b5f6020820190508181035f830152610a7b81610a42565b9050919050565b7f4e487b71000000000000000000000000000000000000000000000000000000005f52601160045260245ffd5b5f610ab982610693565b91507fffffffffffffffffffffffffffffffffffffffffffffffffffffffffffffffff8203610aeb57610aea610a82565b5b600182019050919050565b7f4e487b71000000000000000000000000000000000000000000000000000000005f52602260045260245ffd5b5f6002820490506001821680610b3a57607f821691505b602082108103610b4d57610b4c610af6565b5b50919050565b5f819050815f5260205f209050919050565b5f6020601f8301049050919050565b5f82821b905092915050565b5f60088302610baf7fffffffffffffffffffffffffffffffffffffffffffffffffffffffffffffffff82610b74565b610bb98683610b74565b95508019841693508086168417925050509392505050565b5f819050919050565b5f610bf4610bef610bea84610693565b610bd1565b610693565b9050919050565b5f819050919050565b610c0d83610bda565b610c21610c1982610bfb565b848454610b80565b825550505050565b5f90565b610c35610c29565b610c40818484610c04565b505050565b5b81811015610c6357610c585f82610c2d565b600181019050610c46565b5050565b601f821115610ca857610c7981610b53565b610c8284610b65565b81016020851015610c91578190505b610ca5610c9d85610b65565b830182610c45565b50505b505050565b5f82821c905092915050565b5f610cc85f1984600802610cad565b1980831691505092915050565b5f610ce08383610cb9565b9150826002028217905092915050565b610cf982610910565b67ffffffffffffffff811115610d1257610d1161073c565b5b610d1c8254610b23565b610d27828285610c67565b5f60209050601f831160018114610d58575f8415610d46578287015190505b610d508582610cd5565b865550610db7565b601f198416610d6686610b53565b5f5b82811015610d8d57848901518255600182019150602085019450602081019050610d68565b86831015610daa5784890151610da6601f891682610cb9565b8355505b6001600288020188555050505b505050505050565b7f4c616e6420494420696e76616c696400000000000000000000000000000000005f82015250565b5f610df3600f8361091a565b9150610dfe82610dbf565b602082019050919050565b5f6020820190508181035f830152610e2081610de7565b905091905056fea2646970667358221220f42d6be4edb1f8859167f44e5bf211a637199395dac1573edc94b0b7912347cf64736f6c63430008140033",
  "immutableReferences": {},
  "source": "// SPDX-License-Identifier: MIT\npragma solidity ^0.8.20;\n\ncontract LandRegistry {\n    struct Land {\n        string ownerName;\n        string location;\n        uint area;\n        address ownerAddress;\n    }\n\n    uint public landCount = 0;\n    mapping(uint => Land) public lands;\n\n    event LandRegistered(uint id, address indexed owner);\n\n    function registerLand(string memory _ownerName, string memory _location, uint _area) public {\n        landCount++;\n        lands[landCount] = Land(_ownerName, _location, _area, msg.sender);\n        emit LandRegistered(landCount, msg.sender);\n    }\n\n    function getLand(uint _id) public view returns (string memory, string memory, uint, address) {\n        require(_id > 0 && _id <= landCount, \"Land ID invalid\");\n        Land memory land = lands[_id];\n        return (land.ownerName, land.location, land.area, land.ownerAddress);\n    }\n\n    function isOwner(uint _id) public view returns (bool) {\n        require(_id > 0 && _id <= landCount, \"Invalid land ID\");\n        return lands[_id].ownerAddress == msg.sender;\n    }\n}\n",
  "sourcePath": "C:\\Users\\OSHI SHARMA\\land_registry-1\\contracts\\LandRegistry.sol",
  "compiler": {
    "name": "solc",
    "version": "0.8.20+commit.a1b79de6.Emscripten.clang"
  },
  "schemaVersion": "3.4.13",
  "updatedAt": "2025-04-10T16:34:35.720Z",
  "networkType": "ethereum",
  "devdoc": {
    "kind": "dev",
    "methods": {},
    "version": 1
  },
  "userdoc": {
    "kind": "user",
    "methods": {},
    "version": 1
  }
}